{
  "_format": "hh-sol-artifact-1",
  "contractName": "MockERC6551Account",
  "sourceName": "contracts/MockERC6551Account.sol",
  "abi": [
    {
      "inputs": [
        {
          "internalType": "address",
          "name": "to",
          "type": "address"
        },
        {
          "internalType": "uint256",
          "name": "value",
          "type": "uint256"
        },
        {
          "internalType": "bytes",
          "name": "data",
          "type": "bytes"
        },
        {
          "internalType": "uint8",
          "name": "operation",
          "type": "uint8"
        }
      ],
      "name": "execute",
      "outputs": [
        {
          "internalType": "bytes",
          "name": "result",
          "type": "bytes"
        }
      ],
      "stateMutability": "payable",
      "type": "function"
    },
    {
      "inputs": [
        {
          "internalType": "bytes32",
          "name": "hash",
          "type": "bytes32"
        },
        {
          "internalType": "bytes",
          "name": "signature",
          "type": "bytes"
        }
      ],
      "name": "isValidSignature",
      "outputs": [
        {
          "internalType": "bytes4",
          "name": "magicValue",
          "type": "bytes4"
        }
      ],
      "stateMutability": "pure",
      "type": "function"
    },
    {
      "inputs": [
        {
          "internalType": "address",
          "name": "signer",
          "type": "address"
        },
        {
          "internalType": "bytes",
          "name": "",
          "type": "bytes"
        }
      ],
      "name": "isValidSigner",
      "outputs": [
        {
          "internalType": "bytes4",
          "name": "",
          "type": "bytes4"
        }
      ],
      "stateMutability": "view",
      "type": "function"
    },
    {
      "inputs": [],
      "name": "owner",
      "outputs": [
        {
          "internalType": "address",
          "name": "",
          "type": "address"
        }
      ],
      "stateMutability": "view",
      "type": "function"
    },
    {
      "inputs": [],
      "name": "state",
      "outputs": [
        {
          "internalType": "uint256",
          "name": "",
          "type": "uint256"
        }
      ],
      "stateMutability": "view",
      "type": "function"
    },
    {
      "inputs": [
        {
          "internalType": "bytes4",
          "name": "interfaceId",
          "type": "bytes4"
        }
      ],
      "name": "supportsInterface",
      "outputs": [
        {
          "internalType": "bool",
          "name": "",
          "type": "bool"
        }
      ],
      "stateMutability": "pure",
      "type": "function"
    },
    {
      "inputs": [],
      "name": "token",
      "outputs": [
        {
          "internalType": "uint256",
          "name": "",
          "type": "uint256"
        },
        {
          "internalType": "address",
          "name": "",
          "type": "address"
        },
        {
          "internalType": "uint256",
          "name": "",
          "type": "uint256"
        }
      ],
      "stateMutability": "view",
      "type": "function"
    },
    {
      "stateMutability": "payable",
      "type": "receive"
    }
  ],
  "bytecode": "0x608060405234801561001057600080fd5b506107b0806100206000396000f3fe6080604052600436106100745760003560e01c8063523e32601161004e578063523e32601461010e5780638da5cb5b1461012e578063c19d93fb1461015b578063fc0c546a1461017f57600080fd5b806301ffc9a7146100805780631626ba7e146100b557806351945447146100ee57600080fd5b3661007b57005b600080fd5b34801561008c57600080fd5b506100a061009b366004610473565b6101b7565b60405190151581526020015b60405180910390f35b3480156100c157600080fd5b506100d56100d03660046104b3565b6101ee565b6040516001600160e01b031990911681526020016100ac565b6101016100fc3660046105cf565b610216565b6040516100ac9190610649565b34801561011a57600080fd5b506100d5610129366004610698565b610344565b34801561013a57600080fd5b50610143610365565b6040516001600160a01b0390911681526020016100ac565b34801561016757600080fd5b5061017160005481565b6040519081526020016100ac565b34801561018b57600080fd5b506101946103fb565b604080519384526001600160a01b039092166020840152908201526060016100ac565b60006001600160e01b031982166301ffc9a760e01b14806101e857506001600160e01b0319821663b39e6aed60e01b145b92915050565b8051600090604114801561020c5750630b135d3f60e11b90506101e8565b5060009392505050565b60606102213361044e565b6102635760405162461bcd60e51b815260206004820152600e60248201526d24b73b30b634b21039b4b3b732b960911b60448201526064015b60405180910390fd5b60ff8216156102b45760405162461bcd60e51b815260206004820152601e60248201527f4f6e6c792063616c6c206f7065726174696f6e7320737570706f727465640000604482015260640161025a565b60008081546102c2906106ed565b919050819055506000866001600160a01b03168686866040516102e6929190610714565b60006040518083038185875af1925050503d8060008114610323576040519150601f19603f3d011682016040523d82523d6000602084013e610328565b606091505b50925090508061033a57815160208301fd5b5095945050505050565b600061034f8461044e565b1561020c5750630291f19360e51b5b9392505050565b6000806000806103736103fb565b92509250925046831461038a576000935050505090565b6040516331a9108f60e11b8152600481018290526001600160a01b03831690636352211e90602401602060405180830381865afa1580156103cf573d6000803e3d6000fd5b505050506040513d601f19601f820116820180604052508101906103f39190610724565b935050505090565b60408051606080825260808201909252600091829182918291906020820181803683370190505090506060604d60208301303c808060200190518101906104429190610741565b93509350935050909192565b6000610458610365565b6001600160a01b0316826001600160a01b0316149050919050565b60006020828403121561048557600080fd5b81356001600160e01b03198116811461035e57600080fd5b634e487b7160e01b600052604160045260246000fd5b600080604083850312156104c657600080fd5b82359150602083013567ffffffffffffffff808211156104e557600080fd5b818501915085601f8301126104f957600080fd5b81358181111561050b5761050b61049d565b604051601f8201601f19908116603f011681019083821181831017156105335761053361049d565b8160405282815288602084870101111561054c57600080fd5b8260208601602083013760006020848301015280955050505050509250929050565b6001600160a01b038116811461058357600080fd5b50565b60008083601f84011261059857600080fd5b50813567ffffffffffffffff8111156105b057600080fd5b6020830191508360208285010111156105c857600080fd5b9250929050565b6000806000806000608086880312156105e757600080fd5b85356105f28161056e565b945060208601359350604086013567ffffffffffffffff81111561061557600080fd5b61062188828901610586565b909450925050606086013560ff8116811461063b57600080fd5b809150509295509295909350565b60006020808352835180602085015260005b818110156106775785810183015185820160400152820161065b565b506000604082860101526040601f19601f8301168501019250505092915050565b6000806000604084860312156106ad57600080fd5b83356106b88161056e565b9250602084013567ffffffffffffffff8111156106d457600080fd5b6106e086828701610586565b9497909650939450505050565b60006001820161070d57634e487b7160e01b600052601160045260246000fd5b5060010190565b8183823760009101908152919050565b60006020828403121561073657600080fd5b815161035e8161056e565b60008060006060848603121561075657600080fd5b8351925060208401516107688161056e565b8092505060408401519050925092509256fea26469706673582212206d98f36e6198fce9e8c7f293a55b54baaa089cad080885c860b721a21a42838264736f6c63430008180033",
  "linkReferences": {},
  "deployedLinkReferences": {}
}