{
  "_format": "hh-sol-artifact-1",
  "contractName": "ModredIP",
  "sourceName": "contracts/ModredIP.sol",
  "abi": [
    {
      "inputs": [
        {
          "internalType": "address",
          "name": "_erc6551Registry",
          "type": "address"
        },
        {
          "internalType": "address",
          "name": "_accountImplementation",
          "type": "address"
        }
      ],
      "stateMutability": "nonpayable",
      "type": "constructor"
    },
    {
      "inputs": [
        {
          "internalType": "address",
          "name": "sender",
          "type": "address"
        },
        {
          "internalType": "uint256",
          "name": "tokenId",
          "type": "uint256"
        },
        {
          "internalType": "address",
          "name": "owner",
          "type": "address"
        }
      ],
      "name": "ERC721IncorrectOwner",
      "type": "error"
    },
    {
      "inputs": [
        {
          "internalType": "address",
          "name": "operator",
          "type": "address"
        },
        {
          "internalType": "uint256",
          "name": "tokenId",
          "type": "uint256"
        }
      ],
      "name": "ERC721InsufficientApproval",
      "type": "error"
    },
    {
      "inputs": [
        {
          "internalType": "address",
          "name": "approver",
          "type": "address"
        }
      ],
      "name": "ERC721InvalidApprover",
      "type": "error"
    },
    {
      "inputs": [
        {
          "internalType": "address",
          "name": "operator",
          "type": "address"
        }
      ],
      "name": "ERC721InvalidOperator",
      "type": "error"
    },
    {
      "inputs": [
        {
          "internalType": "address",
          "name": "owner",
          "type": "address"
        }
      ],
      "name": "ERC721InvalidOwner",
      "type": "error"
    },
    {
      "inputs": [
        {
          "internalType": "address",
          "name": "receiver",
          "type": "address"
        }
      ],
      "name": "ERC721InvalidReceiver",
      "type": "error"
    },
    {
      "inputs": [
        {
          "internalType": "address",
          "name": "sender",
          "type": "address"
        }
      ],
      "name": "ERC721InvalidSender",
      "type": "error"
    },
    {
      "inputs": [
        {
          "internalType": "uint256",
          "name": "tokenId",
          "type": "uint256"
        }
      ],
      "name": "ERC721NonexistentToken",
      "type": "error"
    },
    {
      "inputs": [
        {
          "internalType": "address",
          "name": "owner",
          "type": "address"
        }
      ],
      "name": "OwnableInvalidOwner",
      "type": "error"
    },
    {
      "inputs": [
        {
          "internalType": "address",
          "name": "account",
          "type": "address"
        }
      ],
      "name": "OwnableUnauthorizedAccount",
      "type": "error"
    },
    {
      "inputs": [],
      "name": "ReentrancyGuardReentrantCall",
      "type": "error"
    },
    {
      "anonymous": false,
      "inputs": [
        {
          "indexed": true,
          "internalType": "address",
          "name": "owner",
          "type": "address"
        },
        {
          "indexed": true,
          "internalType": "address",
          "name": "approved",
          "type": "address"
        },
        {
          "indexed": true,
          "internalType": "uint256",
          "name": "tokenId",
          "type": "uint256"
        }
      ],
      "name": "Approval",
      "type": "event"
    },
    {
      "anonymous": false,
      "inputs": [
        {
          "indexed": true,
          "internalType": "address",
          "name": "owner",
          "type": "address"
        },
        {
          "indexed": true,
          "internalType": "address",
          "name": "operator",
          "type": "address"
        },
        {
          "indexed": false,
          "internalType": "bool",
          "name": "approved",
          "type": "bool"
        }
      ],
      "name": "ApprovalForAll",
      "type": "event"
    },
    {
      "anonymous": false,
      "inputs": [
        {
          "indexed": false,
          "internalType": "uint256",
          "name": "_fromTokenId",
          "type": "uint256"
        },
        {
          "indexed": false,
          "internalType": "uint256",
          "name": "_toTokenId",
          "type": "uint256"
        }
      ],
      "name": "BatchMetadataUpdate",
      "type": "event"
    },
    {
      "anonymous": false,
      "inputs": [
        {
          "indexed": true,
          "internalType": "uint256",
          "name": "disputeId",
          "type": "uint256"
        },
        {
          "indexed": true,
          "internalType": "uint256",
          "name": "ipTokenId",
          "type": "uint256"
        },
        {
          "indexed": true,
          "internalType": "address",
          "name": "disputer",
          "type": "address"
        }
      ],
      "name": "DisputeRaised",
      "type": "event"
    },
    {
      "anonymous": false,
      "inputs": [
        {
          "indexed": true,
          "internalType": "uint256",
          "name": "disputeId",
          "type": "uint256"
        },
        {
          "indexed": false,
          "internalType": "enum ModredIP.DisputeStatus",
          "name": "status",
          "type": "uint8"
        }
      ],
      "name": "DisputeResolved",
      "type": "event"
    },
    {
      "anonymous": false,
      "inputs": [
        {
          "indexed": true,
          "internalType": "uint256",
          "name": "tokenId",
          "type": "uint256"
        },
        {
          "indexed": true,
          "internalType": "address",
          "name": "owner",
          "type": "address"
        },
        {
          "indexed": false,
          "internalType": "string",
          "name": "ipHash",
          "type": "string"
        },
        {
          "indexed": false,
          "internalType": "address",
          "name": "tokenBoundAccount",
          "type": "address"
        }
      ],
      "name": "IPRegistered",
      "type": "event"
    },
    {
      "anonymous": false,
      "inputs": [
        {
          "indexed": true,
          "internalType": "uint256",
          "name": "tokenId",
          "type": "uint256"
        },
        {
          "indexed": false,
          "internalType": "bool",
          "name": "isActive",
          "type": "bool"
        },
        {
          "indexed": false,
          "internalType": "bool",
          "name": "isDisputed",
          "type": "bool"
        }
      ],
      "name": "IPStatusChanged",
      "type": "event"
    },
    {
      "anonymous": false,
      "inputs": [
        {
          "indexed": true,
          "internalType": "uint256",
          "name": "licenseId",
          "type": "uint256"
        },
        {
          "indexed": true,
          "internalType": "uint256",
          "name": "ipTokenId",
          "type": "uint256"
        },
        {
          "indexed": true,
          "internalType": "address",
          "name": "licensee",
          "type": "address"
        }
      ],
      "name": "LicenseMinted",
      "type": "event"
    },
    {
      "anonymous": false,
      "inputs": [
        {
          "indexed": false,
          "internalType": "uint256",
          "name": "_tokenId",
          "type": "uint256"
        }
      ],
      "name": "MetadataUpdate",
      "type": "event"
    },
    {
      "anonymous": false,
      "inputs": [
        {
          "indexed": true,
          "internalType": "address",
          "name": "previousOwner",
          "type": "address"
        },
        {
          "indexed": true,
          "internalType": "address",
          "name": "newOwner",
          "type": "address"
        }
      ],
      "name": "OwnershipTransferred",
      "type": "event"
    },
    {
      "anonymous": false,
      "inputs": [
        {
          "indexed": true,
          "internalType": "uint256",
          "name": "ipTokenId",
          "type": "uint256"
        },
        {
          "indexed": true,
          "internalType": "address",
          "name": "payer",
          "type": "address"
        },
        {
          "indexed": false,
          "internalType": "uint256",
          "name": "amount",
          "type": "uint256"
        },
        {
          "indexed": false,
          "internalType": "string",
          "name": "description",
          "type": "string"
        }
      ],
      "name": "RevenuePaid",
      "type": "event"
    },
    {
      "anonymous": false,
      "inputs": [
        {
          "indexed": true,
          "internalType": "uint256",
          "name": "ipTokenId",
          "type": "uint256"
        },
        {
          "indexed": true,
          "internalType": "address",
          "name": "claimant",
          "type": "address"
        },
        {
          "indexed": false,
          "internalType": "uint256",
          "name": "amount",
          "type": "uint256"
        }
      ],
      "name": "RoyaltyClaimed",
      "type": "event"
    },
    {
      "anonymous": false,
      "inputs": [
        {
          "indexed": true,
          "internalType": "address",
          "name": "from",
          "type": "address"
        },
        {
          "indexed": true,
          "internalType": "address",
          "name": "to",
          "type": "address"
        },
        {
          "indexed": true,
          "internalType": "uint256",
          "name": "tokenId",
          "type": "uint256"
        }
      ],
      "name": "Transfer",
      "type": "event"
    },
    {
      "inputs": [],
      "name": "PLATFORM_FEE",
      "outputs": [
        {
          "internalType": "uint256",
          "name": "",
          "type": "uint256"
        }
      ],
      "stateMutability": "view",
      "type": "function"
    },
    {
      "inputs": [],
      "name": "ROYALTY_DENOMINATOR",
      "outputs": [
        {
          "internalType": "uint256",
          "name": "",
          "type": "uint256"
        }
      ],
      "stateMutability": "view",
      "type": "function"
    },
    {
      "inputs": [],
      "name": "accountImplementation",
      "outputs": [
        {
          "internalType": "address",
          "name": "",
          "type": "address"
        }
      ],
      "stateMutability": "view",
      "type": "function"
    },
    {
      "inputs": [
        {
          "internalType": "address",
          "name": "to",
          "type": "address"
        },
        {
          "internalType": "uint256",
          "name": "tokenId",
          "type": "uint256"
        }
      ],
      "name": "approve",
      "outputs": [],
      "stateMutability": "nonpayable",
      "type": "function"
    },
    {
      "inputs": [
        {
          "internalType": "address",
          "name": "owner",
          "type": "address"
        }
      ],
      "name": "balanceOf",
      "outputs": [
        {
          "internalType": "uint256",
          "name": "",
          "type": "uint256"
        }
      ],
      "stateMutability": "view",
      "type": "function"
    },
    {
      "inputs": [
        {
          "internalType": "uint256",
          "name": "ipTokenId",
          "type": "uint256"
        }
      ],
      "name": "claimRoyalties",
      "outputs": [],
      "stateMutability": "nonpayable",
      "type": "function"
    },
    {
      "inputs": [
        {
          "internalType": "uint256",
          "name": "",
          "type": "uint256"
        }
      ],
      "name": "disputes",
      "outputs": [
        {
          "internalType": "uint256",
          "name": "disputeId",
          "type": "uint256"
        },
        {
          "internalType": "uint256",
          "name": "ipTokenId",
          "type": "uint256"
        },
        {
          "internalType": "address",
          "name": "disputer",
          "type": "address"
        },
        {
          "internalType": "string",
          "name": "reason",
          "type": "string"
        },
        {
          "internalType": "string",
          "name": "evidence",
          "type": "string"
        },
        {
          "internalType": "uint256",
          "name": "timestamp",
          "type": "uint256"
        },
        {
          "internalType": "enum ModredIP.DisputeStatus",
          "name": "status",
          "type": "uint8"
        },
        {
          "internalType": "address",
          "name": "arbitrator",
          "type": "address"
        }
      ],
      "stateMutability": "view",
      "type": "function"
    },
    {
      "inputs": [],
      "name": "erc6551Registry",
      "outputs": [
        {
          "internalType": "contract IERC6551Registry",
          "name": "",
          "type": "address"
        }
      ],
      "stateMutability": "view",
      "type": "function"
    },
    {
      "inputs": [
        {
          "internalType": "uint256",
          "name": "tokenId",
          "type": "uint256"
        }
      ],
      "name": "getApproved",
      "outputs": [
        {
          "internalType": "address",
          "name": "",
          "type": "address"
        }
      ],
      "stateMutability": "view",
      "type": "function"
    },
    {
      "inputs": [
        {
          "internalType": "uint256",
          "name": "disputeId",
          "type": "uint256"
        }
      ],
      "name": "getDispute",
      "outputs": [
        {
          "components": [
            {
              "internalType": "uint256",
              "name": "disputeId",
              "type": "uint256"
            },
            {
              "internalType": "uint256",
              "name": "ipTokenId",
              "type": "uint256"
            },
            {
              "internalType": "address",
              "name": "disputer",
              "type": "address"
            },
            {
              "internalType": "string",
              "name": "reason",
              "type": "string"
            },
            {
              "internalType": "string",
              "name": "evidence",
              "type": "string"
            },
            {
              "internalType": "uint256",
              "name": "timestamp",
              "type": "uint256"
            },
            {
              "internalType": "enum ModredIP.DisputeStatus",
              "name": "status",
              "type": "uint8"
            },
            {
              "internalType": "address",
              "name": "arbitrator",
              "type": "address"
            }
          ],
          "internalType": "struct ModredIP.Dispute",
          "name": "",
          "type": "tuple"
        }
      ],
      "stateMutability": "view",
      "type": "function"
    },
    {
      "inputs": [
        {
          "internalType": "uint256",
          "name": "tokenId",
          "type": "uint256"
        }
      ],
      "name": "getIPAsset",
      "outputs": [
        {
          "components": [
            {
              "internalType": "uint256",
              "name": "tokenId",
              "type": "uint256"
            },
            {
              "internalType": "address",
              "name": "owner",
              "type": "address"
            },
            {
              "internalType": "string",
              "name": "ipHash",
              "type": "string"
            },
            {
              "internalType": "string",
              "name": "metadata",
              "type": "string"
            },
            {
              "internalType": "bool",
              "name": "isActive",
              "type": "bool"
            },
            {
              "internalType": "bool",
              "name": "isDisputed",
              "type": "bool"
            },
            {
              "internalType": "uint256",
              "name": "registrationDate",
              "type": "uint256"
            },
            {
              "internalType": "uint256",
              "name": "totalRevenue",
              "type": "uint256"
            },
            {
              "internalType": "uint256",
              "name": "royaltyTokens",
              "type": "uint256"
            },
            {
              "internalType": "address",
              "name": "tokenBoundAccount",
              "type": "address"
            }
          ],
          "internalType": "struct ModredIP.IPAsset",
          "name": "",
          "type": "tuple"
        }
      ],
      "stateMutability": "view",
      "type": "function"
    },
    {
      "inputs": [
        {
          "internalType": "uint256",
          "name": "ipTokenId",
          "type": "uint256"
        }
      ],
      "name": "getIPDisputes",
      "outputs": [
        {
          "internalType": "uint256[]",
          "name": "",
          "type": "uint256[]"
        }
      ],
      "stateMutability": "view",
      "type": "function"
    },
    {
      "inputs": [
        {
          "internalType": "uint256",
          "name": "ipTokenId",
          "type": "uint256"
        }
      ],
      "name": "getIPLicenses",
      "outputs": [
        {
          "internalType": "uint256[]",
          "name": "",
          "type": "uint256[]"
        }
      ],
      "stateMutability": "view",
      "type": "function"
    },
    {
      "inputs": [
        {
          "internalType": "uint256",
          "name": "licenseId",
          "type": "uint256"
        }
      ],
      "name": "getLicense",
      "outputs": [
        {
          "components": [
            {
              "internalType": "uint256",
              "name": "licenseId",
              "type": "uint256"
            },
            {
              "internalType": "uint256",
              "name": "ipTokenId",
              "type": "uint256"
            },
            {
              "internalType": "address",
              "name": "licensee",
              "type": "address"
            },
            {
              "internalType": "bool",
              "name": "commercialUse",
              "type": "bool"
            },
            {
              "internalType": "bool",
              "name": "derivativeWorks",
              "type": "bool"
            },
            {
              "internalType": "bool",
              "name": "exclusive",
              "type": "bool"
            },
            {
              "internalType": "uint256",
              "name": "revenueShare",
              "type": "uint256"
            },
            {
              "internalType": "uint256",
              "name": "duration",
              "type": "uint256"
            },
            {
              "internalType": "uint256",
              "name": "issueDate",
              "type": "uint256"
            },
            {
              "internalType": "bool",
              "name": "isActive",
              "type": "bool"
            },
            {
              "internalType": "string",
              "name": "terms",
              "type": "string"
            }
          ],
          "internalType": "struct ModredIP.License",
          "name": "",
          "type": "tuple"
        }
      ],
      "stateMutability": "view",
      "type": "function"
    },
    {
      "inputs": [
        {
          "internalType": "address",
          "name": "licensee",
          "type": "address"
        }
      ],
      "name": "getLicenseeLicenses",
      "outputs": [
        {
          "internalType": "uint256[]",
          "name": "",
          "type": "uint256[]"
        }
      ],
      "stateMutability": "view",
      "type": "function"
    },
    {
      "inputs": [
        {
          "internalType": "address",
          "name": "owner",
          "type": "address"
        }
      ],
      "name": "getOwnerIPs",
      "outputs": [
        {
          "internalType": "uint256[]",
          "name": "",
          "type": "uint256[]"
        }
      ],
      "stateMutability": "view",
      "type": "function"
    },
    {
      "inputs": [
        {
          "internalType": "uint256",
          "name": "ipTokenId",
          "type": "uint256"
        },
        {
          "internalType": "address",
          "name": "holder",
          "type": "address"
        }
      ],
      "name": "getRoyaltyShare",
      "outputs": [
        {
          "internalType": "uint256",
          "name": "",
          "type": "uint256"
        }
      ],
      "stateMutability": "view",
      "type": "function"
    },
    {
      "inputs": [
        {
          "internalType": "uint256",
          "name": "",
          "type": "uint256"
        }
      ],
      "name": "ipAssets",
      "outputs": [
        {
          "internalType": "uint256",
          "name": "tokenId",
          "type": "uint256"
        },
        {
          "internalType": "address",
          "name": "owner",
          "type": "address"
        },
        {
          "internalType": "string",
          "name": "ipHash",
          "type": "string"
        },
        {
          "internalType": "string",
          "name": "metadata",
          "type": "string"
        },
        {
          "internalType": "bool",
          "name": "isActive",
          "type": "bool"
        },
        {
          "internalType": "bool",
          "name": "isDisputed",
          "type": "bool"
        },
        {
          "internalType": "uint256",
          "name": "registrationDate",
          "type": "uint256"
        },
        {
          "internalType": "uint256",
          "name": "totalRevenue",
          "type": "uint256"
        },
        {
          "internalType": "uint256",
          "name": "royaltyTokens",
          "type": "uint256"
        },
        {
          "internalType": "address",
          "name": "tokenBoundAccount",
          "type": "address"
        }
      ],
      "stateMutability": "view",
      "type": "function"
    },
    {
      "inputs": [
        {
          "internalType": "uint256",
          "name": "",
          "type": "uint256"
        },
        {
          "internalType": "uint256",
          "name": "",
          "type": "uint256"
        }
      ],
      "name": "ipToDisputes",
      "outputs": [
        {
          "internalType": "uint256",
          "name": "",
          "type": "uint256"
        }
      ],
      "stateMutability": "view",
      "type": "function"
    },
    {
      "inputs": [
        {
          "internalType": "uint256",
          "name": "",
          "type": "uint256"
        },
        {
          "internalType": "uint256",
          "name": "",
          "type": "uint256"
        }
      ],
      "name": "ipToLicenses",
      "outputs": [
        {
          "internalType": "uint256",
          "name": "",
          "type": "uint256"
        }
      ],
      "stateMutability": "view",
      "type": "function"
    },
    {
      "inputs": [
        {
          "internalType": "address",
          "name": "owner",
          "type": "address"
        },
        {
          "internalType": "address",
          "name": "operator",
          "type": "address"
        }
      ],
      "name": "isApprovedForAll",
      "outputs": [
        {
          "internalType": "bool",
          "name": "",
          "type": "bool"
        }
      ],
      "stateMutability": "view",
      "type": "function"
    },
    {
      "inputs": [
        {
          "internalType": "address",
          "name": "",
          "type": "address"
        },
        {
          "internalType": "uint256",
          "name": "",
          "type": "uint256"
        }
      ],
      "name": "licenseeToLicenses",
      "outputs": [
        {
          "internalType": "uint256",
          "name": "",
          "type": "uint256"
        }
      ],
      "stateMutability": "view",
      "type": "function"
    },
    {
      "inputs": [
        {
          "internalType": "uint256",
          "name": "",
          "type": "uint256"
        }
      ],
      "name": "licenses",
      "outputs": [
        {
          "internalType": "uint256",
          "name": "licenseId",
          "type": "uint256"
        },
        {
          "internalType": "uint256",
          "name": "ipTokenId",
          "type": "uint256"
        },
        {
          "internalType": "address",
          "name": "licensee",
          "type": "address"
        },
        {
          "internalType": "bool",
          "name": "commercialUse",
          "type": "bool"
        },
        {
          "internalType": "bool",
          "name": "derivativeWorks",
          "type": "bool"
        },
        {
          "internalType": "bool",
          "name": "exclusive",
          "type": "bool"
        },
        {
          "internalType": "uint256",
          "name": "revenueShare",
          "type": "uint256"
        },
        {
          "internalType": "uint256",
          "name": "duration",
          "type": "uint256"
        },
        {
          "internalType": "uint256",
          "name": "issueDate",
          "type": "uint256"
        },
        {
          "internalType": "bool",
          "name": "isActive",
          "type": "bool"
        },
        {
          "internalType": "string",
          "name": "terms",
          "type": "string"
        }
      ],
      "stateMutability": "view",
      "type": "function"
    },
    {
      "inputs": [
        {
          "internalType": "uint256",
          "name": "ipTokenId",
          "type": "uint256"
        },
        {
          "internalType": "bool",
          "name": "commercialUse",
          "type": "bool"
        },
        {
          "internalType": "bool",
          "name": "derivativeWorks",
          "type": "bool"
        },
        {
          "internalType": "bool",
          "name": "exclusive",
          "type": "bool"
        },
        {
          "internalType": "uint256",
          "name": "revenueShare",
          "type": "uint256"
        },
        {
          "internalType": "uint256",
          "name": "duration",
          "type": "uint256"
        },
        {
          "internalType": "string",
          "name": "terms",
          "type": "string"
        }
      ],
      "name": "mintLicense",
      "outputs": [
        {
          "internalType": "uint256",
          "name": "",
          "type": "uint256"
        }
      ],
      "stateMutability": "nonpayable",
      "type": "function"
    },
    {
      "inputs": [],
      "name": "name",
      "outputs": [
        {
          "internalType": "string",
          "name": "",
          "type": "string"
        }
      ],
      "stateMutability": "view",
      "type": "function"
    },
    {
      "inputs": [],
      "name": "owner",
      "outputs": [
        {
          "internalType": "address",
          "name": "",
          "type": "address"
        }
      ],
      "stateMutability": "view",
      "type": "function"
    },
    {
      "inputs": [
        {
          "internalType": "uint256",
          "name": "tokenId",
          "type": "uint256"
        }
      ],
      "name": "ownerOf",
      "outputs": [
        {
          "internalType": "address",
          "name": "",
          "type": "address"
        }
      ],
      "stateMutability": "view",
      "type": "function"
    },
    {
      "inputs": [
        {
          "internalType": "address",
          "name": "",
          "type": "address"
        },
        {
          "internalType": "uint256",
          "name": "",
          "type": "uint256"
        }
      ],
      "name": "ownerToIPs",
      "outputs": [
        {
          "internalType": "uint256",
          "name": "",
          "type": "uint256"
        }
      ],
      "stateMutability": "view",
      "type": "function"
    },
    {
      "inputs": [
        {
          "internalType": "uint256",
          "name": "ipTokenId",
          "type": "uint256"
        },
        {
          "internalType": "string",
          "name": "description",
          "type": "string"
        }
      ],
      "name": "payRevenue",
      "outputs": [],
      "stateMutability": "payable",
      "type": "function"
    },
    {
      "inputs": [],
      "name": "ping",
      "outputs": [
        {
          "internalType": "string",
          "name": "",
          "type": "string"
        }
      ],
      "stateMutability": "pure",
      "type": "function"
    },
    {
      "inputs": [
        {
          "internalType": "uint256",
          "name": "ipTokenId",
          "type": "uint256"
        },
        {
          "internalType": "string",
          "name": "reason",
          "type": "string"
        },
        {
          "internalType": "string",
          "name": "evidence",
          "type": "string"
        }
      ],
      "name": "raiseDispute",
      "outputs": [
        {
          "internalType": "uint256",
          "name": "",
          "type": "uint256"
        }
      ],
      "stateMutability": "nonpayable",
      "type": "function"
    },
    {
      "inputs": [
        {
          "internalType": "string",
          "name": "ipHash",
          "type": "string"
        },
        {
          "internalType": "string",
          "name": "metadata",
          "type": "string"
        },
        {
          "internalType": "string",
          "name": "tokenUriString",
          "type": "string"
        }
      ],
      "name": "registerIP",
      "outputs": [
        {
          "internalType": "uint256",
          "name": "",
          "type": "uint256"
        }
      ],
      "stateMutability": "nonpayable",
      "type": "function"
    },
    {
      "inputs": [],
      "name": "renounceOwnership",
      "outputs": [],
      "stateMutability": "nonpayable",
      "type": "function"
    },
    {
      "inputs": [
        {
          "internalType": "uint256",
          "name": "disputeId",
          "type": "uint256"
        },
        {
          "internalType": "enum ModredIP.DisputeStatus",
          "name": "status",
          "type": "uint8"
        },
        {
          "internalType": "address",
          "name": "arbitrator",
          "type": "address"
        }
      ],
      "name": "resolveDispute",
      "outputs": [],
      "stateMutability": "nonpayable",
      "type": "function"
    },
    {
      "inputs": [
        {
          "internalType": "uint256",
          "name": "",
          "type": "uint256"
        },
        {
          "internalType": "address",
          "name": "",
          "type": "address"
        }
      ],
      "name": "royaltyShares",
      "outputs": [
        {
          "internalType": "uint256",
          "name": "",
          "type": "uint256"
        }
      ],
      "stateMutability": "view",
      "type": "function"
    },
    {
      "inputs": [
        {
          "internalType": "address",
          "name": "from",
          "type": "address"
        },
        {
          "internalType": "address",
          "name": "to",
          "type": "address"
        },
        {
          "internalType": "uint256",
          "name": "tokenId",
          "type": "uint256"
        }
      ],
      "name": "safeTransferFrom",
      "outputs": [],
      "stateMutability": "nonpayable",
      "type": "function"
    },
    {
      "inputs": [
        {
          "internalType": "address",
          "name": "from",
          "type": "address"
        },
        {
          "internalType": "address",
          "name": "to",
          "type": "address"
        },
        {
          "internalType": "uint256",
          "name": "tokenId",
          "type": "uint256"
        },
        {
          "internalType": "bytes",
          "name": "data",
          "type": "bytes"
        }
      ],
      "name": "safeTransferFrom",
      "outputs": [],
      "stateMutability": "nonpayable",
      "type": "function"
    },
    {
      "inputs": [
        {
          "internalType": "address",
          "name": "operator",
          "type": "address"
        },
        {
          "internalType": "bool",
          "name": "approved",
          "type": "bool"
        }
      ],
      "name": "setApprovalForAll",
      "outputs": [],
      "stateMutability": "nonpayable",
      "type": "function"
    },
    {
      "inputs": [
        {
          "internalType": "uint256",
          "name": "ipTokenId",
          "type": "uint256"
        },
        {
          "internalType": "bool",
          "name": "isActive",
          "type": "bool"
        }
      ],
      "name": "setIPStatus",
      "outputs": [],
      "stateMutability": "nonpayable",
      "type": "function"
    },
    {
      "inputs": [
        {
          "internalType": "bytes4",
          "name": "interfaceId",
          "type": "bytes4"
        }
      ],
      "name": "supportsInterface",
      "outputs": [
        {
          "internalType": "bool",
          "name": "",
          "type": "bool"
        }
      ],
      "stateMutability": "view",
      "type": "function"
    },
    {
      "inputs": [],
      "name": "symbol",
      "outputs": [
        {
          "internalType": "string",
          "name": "",
          "type": "string"
        }
      ],
      "stateMutability": "view",
      "type": "function"
    },
    {
      "inputs": [
        {
          "internalType": "uint256",
          "name": "tokenId",
          "type": "uint256"
        }
      ],
      "name": "tokenURI",
      "outputs": [
        {
          "internalType": "string",
          "name": "",
          "type": "string"
        }
      ],
      "stateMutability": "view",
      "type": "function"
    },
    {
      "inputs": [],
      "name": "totalDisputes",
      "outputs": [
        {
          "internalType": "uint256",
          "name": "",
          "type": "uint256"
        }
      ],
      "stateMutability": "view",
      "type": "function"
    },
    {
      "inputs": [],
      "name": "totalIPs",
      "outputs": [
        {
          "internalType": "uint256",
          "name": "",
          "type": "uint256"
        }
      ],
      "stateMutability": "view",
      "type": "function"
    },
    {
      "inputs": [],
      "name": "totalLicenses",
      "outputs": [
        {
          "internalType": "uint256",
          "name": "",
          "type": "uint256"
        }
      ],
      "stateMutability": "view",
      "type": "function"
    },
    {
      "inputs": [
        {
          "internalType": "address",
          "name": "from",
          "type": "address"
        },
        {
          "internalType": "address",
          "name": "to",
          "type": "address"
        },
        {
          "internalType": "uint256",
          "name": "tokenId",
          "type": "uint256"
        }
      ],
      "name": "transferFrom",
      "outputs": [],
      "stateMutability": "nonpayable",
      "type": "function"
    },
    {
      "inputs": [
        {
          "internalType": "address",
          "name": "newOwner",
          "type": "address"
        }
      ],
      "name": "transferOwnership",
      "outputs": [],
      "stateMutability": "nonpayable",
      "type": "function"
    },
    {
      "inputs": [
        {
          "internalType": "uint256",
          "name": "ipTokenId",
          "type": "uint256"
        },
        {
          "internalType": "address",
          "name": "to",
          "type": "address"
        },
        {
          "internalType": "uint256",
          "name": "amount",
          "type": "uint256"
        }
      ],
      "name": "transferRoyaltyShares",
      "outputs": [],
      "stateMutability": "nonpayable",
      "type": "function"
    },
    {
      "inputs": [],
      "name": "version",
      "outputs": [
        {
          "internalType": "string",
          "name": "",
          "type": "string"
        }
      ],
      "stateMutability": "pure",
      "type": "function"
    }
  ],
  "bytecode": "0x60c06040523480156200001157600080fd5b506040516200458c3803806200458c83398101604081905262000034916200015c565b336040518060400160405280600881526020016704d6f6472656449560c41b8152506040518060400160405280600381526020016204d49560ec1b81525081600090816200008391906200023b565b5060016200009282826200023b565b5050506001600160a01b038116620000c457604051631e4fbdf760e01b81526000600482015260240160405180910390fd5b620000cf81620000ed565b5060016008556001600160a01b039182166080521660a05262000307565b600780546001600160a01b038381166001600160a01b0319831681179093556040519116919082907f8be0079c531659141344cd1fd0a4f28419497f9722a3daafe3b4186f6b6457e090600090a35050565b80516001600160a01b03811681146200015757600080fd5b919050565b600080604083850312156200017057600080fd5b6200017b836200013f565b91506200018b602084016200013f565b90509250929050565b634e487b7160e01b600052604160045260246000fd5b600181811c90821680620001bf57607f821691505b602082108103620001e057634e487b7160e01b600052602260045260246000fd5b50919050565b601f82111562000236576000816000526020600020601f850160051c81016020861015620002115750805b601f850160051c820191505b8181101562000232578281556001016200021d565b5050505b505050565b81516001600160401b0381111562000257576200025762000194565b6200026f81620002688454620001aa565b84620001e6565b602080601f831160018114620002a757600084156200028e5750858301515b600019600386901b1c1916600185901b17855562000232565b600085815260208120601f198616915b82811015620002d857888601518255948401946001909101908401620002b7565b5085821015620002f75787850151600019600388901b60f8161c191681555b5050505050600190811b01905550565b60805160a0516142516200033b6000396000818161040d0152610ac30152600081816102fa0152610b0801526142516000f3fe6080604052600436106102ae5760003560e01c80637fd6ddac11610175578063bc18e4b4116100dc578063d28cd82a11610095578063e3a96cbd1161006f578063e3a96cbd146108ed578063e985e9c51461091a578063f2fde38b1461093a578063f338456e1461095a57600080fd5b8063d28cd82a14610897578063dceade4a146108b7578063df173dba146108d757600080fd5b8063bc18e4b4146107ed578063bf7e47de14610802578063c14e635914610822578063c5e4ccc414610842578063c87b56dd14610857578063d08d6a481461087757600080fd5b806395d89b411161012e57806395d89b4114610715578063a22cb4651461072a578063a8aa57eb1461074a578063b1cefb4b1461076a578063b2dd1212146107a0578063b88d4fde146107cd57600080fd5b80637fd6ddac1461065757806386ad310f146106775780638c030088146106975780638da5cb5b146106b75780638e1d366a146106d5578063934c04ea146106f557600080fd5b806333790845116102195780635c36b186116101d25780635c36b1861461057d578063623f3544146105aa5780636352211e146105ca5780636b55b20c146105ea57806370a0823114610622578063715018a61461064257600080fd5b8063337908451461048f57806334fbc9a1146104c657806342842e0e146104db57806354fd4d50146104fb578063564a565d146105295780635b982d2f1461055d57600080fd5b80630cc59fc71161026b5780630cc59fc7146103c65780630e80a287146103e657806311464fbe146103fb5780631a064d381461042f57806323b872dd146104425780632816fb0b1461046257600080fd5b806301ffc9a7146102b3578063056d5afe146102e857806306fdde031461033457806307e85e0d14610356578063081812fc14610384578063095ea7b3146103a4575b600080fd5b3480156102bf57600080fd5b506102d36102ce36600461355a565b610987565b60405190151581526020015b60405180910390f35b3480156102f457600080fd5b5061031c7f000000000000000000000000000000000000000000000000000000000000000081565b6040516001600160a01b0390911681526020016102df565b34801561034057600080fd5b50610349610998565b6040516102df91906135c7565b34801561036257600080fd5b506103766103713660046136a7565b610a2a565b6040519081526020016102df565b34801561039057600080fd5b5061031c61039f36600461372f565b610c83565b3480156103b057600080fd5b506103c46103bf36600461375d565b610cac565b005b3480156103d257600080fd5b506103c46103e1366004613789565b610cbb565b3480156103f257600080fd5b50600a54610376565b34801561040757600080fd5b5061031c7f000000000000000000000000000000000000000000000000000000000000000081565b6103c461043d3660046137c1565b610e51565b34801561044e57600080fd5b506103c461045d366004613808565b611057565b34801561046e57600080fd5b5061048261047d366004613838565b6110e2565b6040516102df9190613855565b34801561049b57600080fd5b506104af6104aa36600461372f565b61114e565b6040516102df9b9a99989796959493929190613899565b3480156104d257600080fd5b5061037660fa81565b3480156104e757600080fd5b506103c46104f6366004613808565b611247565b34801561050757600080fd5b506040805180820190915260058152640312e302e360dc1b6020820152610349565b34801561053557600080fd5b5061054961054436600461372f565b611267565b6040516102df989796959493929190613946565b34801561056957600080fd5b506103766105783660046139b9565b6113d1565b34801561058957600080fd5b50604080518082019091526004815263706f6e6760e01b6020820152610349565b3480156105b657600080fd5b506103766105c536600461375d565b6115ce565b3480156105d657600080fd5b5061031c6105e536600461372f565b6115ff565b3480156105f657600080fd5b506103766106053660046139ed565b601260209081526000928352604080842090915290825290205481565b34801561062e57600080fd5b5061037661063d366004613838565b61160a565b34801561064e57600080fd5b506103c4611652565b34801561066357600080fd5b506103766106723660046139ed565b611666565b34801561068357600080fd5b506103c461069236600461372f565b6116c3565b3480156106a357600080fd5b506103766106b236600461375d565b6118dd565b3480156106c357600080fd5b506007546001600160a01b031661031c565b3480156106e157600080fd5b506103766106f0366004613a1d565b6118f9565b34801561070157600080fd5b506103c4610710366004613a54565b611915565b34801561072157600080fd5b506103496119b5565b34801561073657600080fd5b506103c4610745366004613a80565b6119c4565b34801561075657600080fd5b506103c4610765366004613aac565b6119cf565b34801561077657600080fd5b5061078a61078536600461372f565b611c8d565b6040516102df9a99989796959493929190613af2565b3480156107ac57600080fd5b506107c06107bb36600461372f565b611e04565b6040516102df9190613b6c565b3480156107d957600080fd5b506103c46107e8366004613c1d565b612010565b3480156107f957600080fd5b50600954610376565b34801561080e57600080fd5b5061048261081d366004613838565b612028565b34801561082e57600080fd5b5061048261083d36600461372f565b612092565b34801561084e57600080fd5b50601354610376565b34801561086357600080fd5b5061034961087236600461372f565b612127565b34801561088357600080fd5b50610376610892366004613a1d565b612132565b3480156108a357600080fd5b506103766108b2366004613c9d565b61214e565b3480156108c357600080fd5b506104826108d236600461372f565b612494565b3480156108e357600080fd5b5061037661271081565b3480156108f957600080fd5b5061090d61090836600461372f565b612527565b6040516102df9190613d29565b34801561092657600080fd5b506102d3610935366004613dc9565b61274f565b34801561094657600080fd5b506103c4610955366004613838565b61277d565b34801561096657600080fd5b5061097a61097536600461372f565b6127b8565b6040516102df9190613df7565b600061099282612a0d565b92915050565b6060600080546109a790613ebb565b80601f01602080910402602001604051908101604052809291908181526020018280546109d390613ebb565b8015610a205780601f106109f557610100808354040283529160200191610a20565b820191906000526020600020905b815481529060010190602001808311610a0357829003601f168201915b5050505050905090565b600080845111610a815760405162461bcd60e51b815260206004820152601760248201527f495020686173682063616e6e6f7420626520656d70747900000000000000000060448201526064015b60405180910390fd5b6009805460009182610a9283613f05565b919050559050610aa23382612a32565b610aac8184612a97565b604051638a54c52f60e01b81526001600160a01b037f00000000000000000000000000000000000000000000000000000000000000008116600483015260006024830181905246604484015230606484015260848301849052917f000000000000000000000000000000000000000000000000000000000000000090911690638a54c52f9060a4016020604051808303816000875af1158015610b53573d6000803e3d6000fd5b505050506040513d601f19601f82011682018060405250810190610b779190613f1e565b6000838152600b602052604090208381556001810180546001600160a01b0319163317905590915060028101610bad8882613f83565b5060038101610bbc8782613f83565b50600481018054600161ffff199091168117909155426005830155600060068301819055612710600784018190556008840180546001600160a01b0319166001600160a01b03871617905585825260126020908152604080842033808652908352818520939093556010825280842080549586018155845292209092018590555184907f392d7808c6864dff6fe6bd90bfe6712c4367cf0b4b4c1506fd1424f1f51feb3290610c6e908b908790614043565b60405180910390a350909150505b9392505050565b6000610c8e82612ae7565b506000828152600460205260409020546001600160a01b0316610992565b610cb7828233612b1f565b5050565b826000610cc782612b2c565b6001600160a01b031603610ced5760405162461bcd60e51b8152600401610a789061406d565b6001600160a01b038316610d375760405162461bcd60e51b8152602060048201526011602482015270125b9d985b1a59081c9958da5c1a595b9d607a1b6044820152606401610a78565b60008211610d875760405162461bcd60e51b815260206004820152601760248201527f416d6f756e74206d75737420626520706f7369746976650000000000000000006044820152606401610a78565b6000848152601260209081526040808320338452909152902054821115610de65760405162461bcd60e51b8152602060048201526013602482015272496e73756666696369656e742073686172657360681b6044820152606401610a78565b600084815260126020908152604080832033845290915281208054849290610e0f908490614098565b909155505060008481526012602090815260408083206001600160a01b038716845290915281208054849290610e469084906140ab565b909155505050505050565b610e59612b47565b816000610e6582612b2c565b6001600160a01b031603610e8b5760405162461bcd60e51b8152600401610a789061406d565b60003411610edb5760405162461bcd60e51b815260206004820152601f60248201527f5061796d656e7420616d6f756e74206d75737420626520706f736974697665006044820152606401610a78565b6000838152600b6020526040902060040154610100900460ff1615610f385760405162461bcd60e51b8152602060048201526013602482015272495020697320756e646572206469737075746560681b6044820152606401610a78565b6000610f483460fa612710612b71565b90506000610f568234614098565b905080600b60008781526020019081526020016000206006016000828254610f7e91906140ab565b90915550506007546040516001600160a01b039091169083156108fc029084906000818181858888f19350505050158015610fbd573d6000803e3d6000fd5b506000858152600b60205260408082206008015490516001600160a01b039091169183156108fc02918491818181858888f19350505050158015611005573d6000803e3d6000fd5b50336001600160a01b0316857f237fbc7e94ffe10bd6e76a51e483550c3568fdd5fe7c0e7b2bcf680796ade7a734876040516110429291906140be565b60405180910390a3505050610cb76001600855565b6001600160a01b03821661108157604051633250574960e11b815260006004820152602401610a78565b600061108e838333612c26565b9050836001600160a01b0316816001600160a01b0316146110dc576040516364283d7b60e01b81526001600160a01b0380861660048301526024820184905282166044820152606401610a78565b50505050565b6001600160a01b03811660009081526010602090815260409182902080548351818402810184019094528084526060939283018282801561114257602002820191906000526020600020905b81548152602001906001019080831161112e575b50505050509050919050565b600c6020526000908152604090208054600182015460028301546003840154600485015460058601546006870154600788018054979896976001600160a01b0387169760ff600160a01b8904811698600160a81b8104821698600160b01b9091048216979096909590949116926111c490613ebb565b80601f01602080910402602001604051908101604052809291908181526020018280546111f090613ebb565b801561123d5780601f106112125761010080835404028352916020019161123d565b820191906000526020600020905b81548152906001019060200180831161122057829003601f168201915b505050505090508b565b61126283838360405180602001604052806000815250612010565b505050565b600d602052600090815260409020805460018201546002830154600384018054939492936001600160a01b0390921692916112a190613ebb565b80601f01602080910402602001604051908101604052809291908181526020018280546112cd90613ebb565b801561131a5780601f106112ef5761010080835404028352916020019161131a565b820191906000526020600020905b8154815290600101906020018083116112fd57829003601f168201915b50505050509080600401805461132f90613ebb565b80601f016020809104026020016040519081016040528092919081815260200182805461135b90613ebb565b80156113a85780601f1061137d576101008083540402835291602001916113a8565b820191906000526020600020905b81548152906001019060200180831161138b57829003601f168201915b50505050600583015460069093015491929160ff8116915061010090046001600160a01b031688565b600083816113de82612b2c565b6001600160a01b0316036114045760405162461bcd60e51b8152600401610a789061406d565b600084511161144e5760405162461bcd60e51b8152602060048201526016602482015275526561736f6e2063616e6e6f7420626520656d70747960501b6044820152606401610a78565b600083511161149f5760405162461bcd60e51b815260206004820152601860248201527f45766964656e63652063616e6e6f7420626520656d70747900000000000000006044820152606401610a78565b60138054600091826114b083613f05565b909155506000818152600d60205260409020818155600181018890556002810180546001600160a01b03191633179055909150600381016114f18782613f83565b50600481016115008682613f83565b504260058201556006810180546001600160a81b03191690556000878152600b60209081526040808320600401805461ff001916610100179055600f82528083208054600181018255908452918320909101849055513391899185917f83201991c75b30e493678d0543bdbd02d6a194a5a0dda31490a5fe09e9f0a22091a46000878152600b602090815260409182902060040154825160ff9091161515815260019181019190915288916000805160206141fc833981519152910160405180910390a25095945050505050565b601060205281600052604060002081815481106115ea57600080fd5b90600052602060002001600091509150505481565b600061099282612ae7565b60006001600160a01b038216611636576040516322718ad960e21b815260006004820152602401610a78565b506001600160a01b031660009081526003602052604090205490565b61165a612c73565b6116646000612ca0565b565b6000828161167382612b2c565b6001600160a01b0316036116995760405162461bcd60e51b8152600401610a789061406d565b505060009182526012602090815260408084206001600160a01b0393909316845291905290205490565b6116cb612b47565b8060006116d782612b2c565b6001600160a01b0316036116fd5760405162461bcd60e51b8152600401610a789061406d565b6000828152601260209081526040808320338452909152902054806117575760405162461bcd60e51b815260206004820152601060248201526f4e6f20726f79616c747920736861726560801b6044820152606401610a78565b6000838152600b60205260409020600801546001600160a01b03168031806117b55760405162461bcd60e51b81526020600482015260116024820152704e6f2066756e647320746f20636c61696d60781b6044820152606401610a78565b60006117c48285612710612b71565b90506000811161180a5760405162461bcd60e51b81526020600482015260116024820152704e6f2066756e647320746f20636c61696d60781b6044820152606401610a78565b604051635194544760e01b8152336004820152602481018290526080604482015260006084820181905260648201526001600160a01b0384169063519454479060a4016000604051808303816000875af115801561186c573d6000803e3d6000fd5b505050506040513d6000823e601f3d908101601f1916820160405261189491908101906140d7565b50604051818152339087907e5ff6321fbc462bad97d71220393208f0286cd4482b70c04f592526a75656d39060200160405180910390a350505050506118da6001600855565b50565b601160205281600052604060002081815481106115ea57600080fd5b600e60205281600052604060002081815481106115ea57600080fd5b61191d612c73565b81600061192982612b2c565b6001600160a01b03160361194f5760405162461bcd60e51b8152600401610a789061406d565b6000838152600b602052604090819020600401805484151560ff199091161790819055905184916000805160206141fc833981519152916119a891869161010090910460ff169091151582521515602082015260400190565b60405180910390a2505050565b6060600180546109a790613ebb565b610cb7338383612cf2565b6119d7612c73565b6000838152600d6020526040812054849103611a2e5760405162461bcd60e51b8152602060048201526016602482015275111a5cdc1d5d1948191bd95cc81b9bdd08195e1a5cdd60521b6044820152606401610a78565b6002836004811115611a4257611a4261390e565b1480611a5f57506003836004811115611a5d57611a5d61390e565b145b611aab5760405162461bcd60e51b815260206004820152601960248201527f496e76616c6964207265736f6c7574696f6e20737461747573000000000000006044820152606401610a78565b6000848152600d602052604081206006015460ff166004811115611ad157611ad161390e565b14611b1e5760405162461bcd60e51b815260206004820152601860248201527f4469737075746520616c7265616479207265736f6c76656400000000000000006044820152606401610a78565b6000848152600d60205260409020600601805484919060ff19166001836004811115611b4c57611b4c61390e565b02179055506000848152600d60205260409020600681018054610100600160a81b0319166101006001600160a01b03861602179055600101546003846004811115611b9957611b9961390e565b03611bef576000818152600b60209081526040808320600401805461ff00198116909155815160ff909116151581529182019290925282916000805160206141fc833981519152910160405180910390a2611c4e565b6002846004811115611c0357611c0361390e565b03611c4e576000818152600b60209081526040808320600401805460ff19169055805192835260019183019190915282916000805160206141fc833981519152910160405180910390a25b847f2ffcfee146bc0d5ff304c6b65111a0d485af9456dc64eee7d66ebdcc90b223ea85604051611c7e919061414e565b60405180910390a25050505050565b600b6020526000908152604090208054600182015460028301805492936001600160a01b0390921692611cbf90613ebb565b80601f0160208091040260200160405190810160405280929190818152602001828054611ceb90613ebb565b8015611d385780601f10611d0d57610100808354040283529160200191611d38565b820191906000526020600020905b815481529060010190602001808311611d1b57829003601f168201915b505050505090806003018054611d4d90613ebb565b80601f0160208091040260200160405190810160405280929190818152602001828054611d7990613ebb565b8015611dc65780601f10611d9b57610100808354040283529160200191611dc6565b820191906000526020600020905b815481529060010190602001808311611da957829003601f168201915b5050506004840154600585015460068601546007870154600890970154959660ff80851697610100909504169550919350916001600160a01b03168a565b611e72604051806101600160405280600081526020016000815260200160006001600160a01b03168152602001600015158152602001600015158152602001600015158152602001600081526020016000815260200160008152602001600015158152602001606081525090565b6000828152600c6020526040812054839103611ec95760405162461bcd60e51b8152602060048201526016602482015275131a58d95b9cd948191bd95cc81b9bdd08195e1a5cdd60521b6044820152606401610a78565b6000838152600c60209081526040918290208251610160810184528154815260018201549281019290925260028101546001600160a01b0381169383019390935260ff600160a01b8404811615156060840152600160a81b8404811615156080840152600160b01b9093048316151560a0830152600381015460c0830152600481015460e083015260058101546101008301526006810154909216151561012082015260078201805491929161014084019190611f8590613ebb565b80601f0160208091040260200160405190810160405280929190818152602001828054611fb190613ebb565b8015611ffe5780601f10611fd357610100808354040283529160200191611ffe565b820191906000526020600020905b815481529060010190602001808311611fe157829003601f168201915b50505050508152505091505b50919050565b61201b848484611057565b6110dc3385858585612d91565b6001600160a01b038116600090815260116020908152604091829020805483518184028101840190945280845260609392830182828015611142576020028201919060005260206000209081548152602001906001019080831161112e5750505050509050919050565b60608160006120a082612b2c565b6001600160a01b0316036120c65760405162461bcd60e51b8152600401610a789061406d565b6000838152600f60209081526040918290208054835181840281018401909452808452909183018282801561211a57602002820191906000526020600020905b815481526020019060010190808311612106575b5050505050915050919050565b606061099282612ebc565b600f60205281600052604060002081815481106115ea57600080fd5b6000878161215b82612b2c565b6001600160a01b0316036121815760405162461bcd60e51b8152600401610a789061406d565b6000898152600b6020526040902060040154610100900460ff16156121de5760405162461bcd60e51b8152602060048201526013602482015272495020697320756e646572206469737075746560681b6044820152606401610a78565b6000898152600b602052604090206004015460ff166122325760405162461bcd60e51b815260206004820152601060248201526f4950206973206e6f742061637469766560801b6044820152606401610a78565b61271085111561227c5760405162461bcd60e51b8152602060048201526015602482015274496e76616c696420726576656e756520736861726560581b6044820152606401610a78565b600084116122cc5760405162461bcd60e51b815260206004820152601960248201527f4475726174696f6e206d75737420626520706f736974697665000000000000006044820152606401610a78565b60008351116123165760405162461bcd60e51b8152602060048201526016602482015275131a58d95b9cd9481d195c9b5cc81c995c5d5a5c995960521b6044820152606401610a78565b600a80546000918261232783613f05565b9190505590506000600c600083815260200190815260200160002090508181600001819055508a8160010181905550338160020160006101000a8154816001600160a01b0302191690836001600160a01b03160217905550898160020160146101000a81548160ff021916908315150217905550888160020160156101000a81548160ff021916908315150217905550878160020160166101000a81548160ff02191690831515021790555086816003018190555085816004018190555042816005018190555060018160060160006101000a81548160ff0219169083151502179055508481600701908161241c9190613f83565b5060008b8152600e60209081526040808320805460018181018355918552838520018690553380855260118452828520805492830181558552928420018590555190918d9185917ff3e06c5a2377f321895ab1f570aa3551aadcbe18d7fc962f31b9693634df630891a4509998505050505050505050565b60608160006124a282612b2c565b6001600160a01b0316036124c85760405162461bcd60e51b8152600401610a789061406d565b6000838152600e60209081526040918290208054835181840281018401909452808452909183018282801561211a5760200282019190600052602060002090815481526020019060010190808311612106575050505050915050919050565b61252f6134e5565b6000828152600d60205260408120548391036125865760405162461bcd60e51b8152602060048201526016602482015275111a5cdc1d5d1948191bd95cc81b9bdd08195e1a5cdd60521b6044820152606401610a78565b6000838152600d60209081526040918290208251610100810184528154815260018201549281019290925260028101546001600160a01b0316928201929092526003820180549192916060840191906125de90613ebb565b80601f016020809104026020016040519081016040528092919081815260200182805461260a90613ebb565b80156126575780601f1061262c57610100808354040283529160200191612657565b820191906000526020600020905b81548152906001019060200180831161263a57829003601f168201915b5050505050815260200160048201805461267090613ebb565b80601f016020809104026020016040519081016040528092919081815260200182805461269c90613ebb565b80156126e95780601f106126be576101008083540402835291602001916126e9565b820191906000526020600020905b8154815290600101906020018083116126cc57829003601f168201915b505050918352505060058201546020820152600682015460409091019060ff16600481111561271a5761271a61390e565b600481111561272b5761272b61390e565b81526006919091015461010090046001600160a01b03166020909101529392505050565b6001600160a01b03918216600090815260056020908152604080832093909416825291909152205460ff1690565b612785612c73565b6001600160a01b0381166127af57604051631e4fbdf760e01b815260006004820152602401610a78565b6118da81612ca0565b6128246040518061014001604052806000815260200160006001600160a01b03168152602001606081526020016060815260200160001515815260200160001515815260200160008152602001600081526020016000815260200160006001600160a01b031681525090565b81600061283082612b2c565b6001600160a01b0316036128565760405162461bcd60e51b8152600401610a789061406d565b6000838152600b60209081526040918290208251610140810184528154815260018201546001600160a01b03169281019290925260028101805492939192918401916128a190613ebb565b80601f01602080910402602001604051908101604052809291908181526020018280546128cd90613ebb565b801561291a5780601f106128ef5761010080835404028352916020019161291a565b820191906000526020600020905b8154815290600101906020018083116128fd57829003601f168201915b5050505050815260200160038201805461293390613ebb565b80601f016020809104026020016040519081016040528092919081815260200182805461295f90613ebb565b80156129ac5780601f10612981576101008083540402835291602001916129ac565b820191906000526020600020905b81548152906001019060200180831161298f57829003601f168201915b5050509183525050600482015460ff8082161515602084015261010090910416151560408201526005820154606082015260068201546080820152600782015460a08201526008909101546001600160a01b031660c0909101529392505050565b60006001600160e01b03198216632483248360e11b1480610992575061099282612fc5565b6001600160a01b038216612a5c57604051633250574960e11b815260006004820152602401610a78565b6000612a6a83836000612c26565b90506001600160a01b03811615611262576040516339e3563760e11b815260006004820152602401610a78565b6000828152600660205260409020612aaf8282613f83565b506040518281527ff8e1a15aba9398e019f0b49df1a4fde98ee17ae345cb5f6b5e2c27f5033e8ce79060200160405180910390a15050565b600080612af383612b2c565b90506001600160a01b03811661099257604051637e27328960e01b815260048101849052602401610a78565b6112628383836001613015565b6000908152600260205260409020546001600160a01b031690565b600260085403612b6a57604051633ee5aeb560e01b815260040160405180910390fd5b6002600855565b6000806000612b80868661311b565b9150915081600003612ba557838181612b9b57612b9b61415c565b0492505050610c7c565b818411612bbc57612bbc6003851502601118613139565b6000848688096000868103871696879004966002600389028118808a02820302808a02820302808a02820302808a02820302808a02820302808a02909103029181900381900460010185841190960395909502919093039390930492909217029150509392505050565b600080612c3485858561314b565b9050600954841015612c6b576000848152600b6020526040902060010180546001600160a01b0319166001600160a01b0387161790555b949350505050565b6007546001600160a01b031633146116645760405163118cdaa760e01b8152336004820152602401610a78565b600780546001600160a01b038381166001600160a01b0319831681179093556040519116919082907f8be0079c531659141344cd1fd0a4f28419497f9722a3daafe3b4186f6b6457e090600090a35050565b6001600160a01b038216612d2457604051630b61174360e31b81526001600160a01b0383166004820152602401610a78565b6001600160a01b03838116600081815260056020908152604080832094871680845294825291829020805460ff191686151590811790915591519182527f17307eab39ab6107e8899845ad3d59bd9653f200f220920489ca2b5937696c31910160405180910390a3505050565b6001600160a01b0383163b15612eb557604051630a85bd0160e11b81526001600160a01b0384169063150b7a0290612dd3908890889087908790600401614172565b6020604051808303816000875af1925050508015612e0e575060408051601f3d908101601f19168201909252612e0b918101906141af565b60015b612e77573d808015612e3c576040519150601f19603f3d011682016040523d82523d6000602084013e612e41565b606091505b508051600003612e6f57604051633250574960e11b81526001600160a01b0385166004820152602401610a78565b805160208201fd5b6001600160e01b03198116630a85bd0160e11b14612eb357604051633250574960e11b81526001600160a01b0385166004820152602401610a78565b505b5050505050565b6060612ec782612ae7565b5060008281526006602052604081208054612ee190613ebb565b80601f0160208091040260200160405190810160405280929190818152602001828054612f0d90613ebb565b8015612f5a5780601f10612f2f57610100808354040283529160200191612f5a565b820191906000526020600020905b815481529060010190602001808311612f3d57829003601f168201915b505050505090506000612f7860408051602081019091526000815290565b90508051600003612f8a575092915050565b815115612fbc578082604051602001612fa49291906141cc565b60405160208183030381529060405292505050919050565b612c6b8461323f565b60006001600160e01b031982166380ac58cd60e01b1480612ff657506001600160e01b03198216635b5e139f60e01b145b8061099257506301ffc9a760e01b6001600160e01b0319831614610992565b808061302957506001600160a01b03821615155b156130eb57600061303984612ae7565b90506001600160a01b038316158015906130655750826001600160a01b0316816001600160a01b031614155b80156130785750613076818461274f565b155b156130a15760405163a9fbf51f60e01b81526001600160a01b0384166004820152602401610a78565b81156130e95783856001600160a01b0316826001600160a01b03167f8c5be1e5ebec7d5bd14f71427d1e84f3dd0314c0f7b2291e5b200ac8c7c3b92560405160405180910390a45b505b5050600090815260046020526040902080546001600160a01b0319166001600160a01b0392909216919091179055565b60008060001983850993909202808410938190039390930393915050565b634e487b71600052806020526024601cfd5b60008061315784612b2c565b90506001600160a01b03831615613173576131738184866132b3565b6001600160a01b038116156131b157613190600085600080613015565b6001600160a01b038116600090815260036020526040902080546000190190555b6001600160a01b038516156131e0576001600160a01b0385166000908152600360205260409020805460010190555b60008481526002602052604080822080546001600160a01b0319166001600160a01b0389811691821790925591518793918516917fddf252ad1be2c89b69c2b068fc378daa952ba7f163c4a11628f55a4df523b3ef91a4949350505050565b606061324a82612ae7565b50600061326260408051602081019091526000815290565b905060008151116132825760405180602001604052806000815250610c7c565b8061328c84613317565b60405160200161329d9291906141cc565b6040516020818303038152906040529392505050565b6132be8383836133aa565b611262576001600160a01b0383166132ec57604051637e27328960e01b815260048101829052602401610a78565b60405163177e802f60e01b81526001600160a01b038316600482015260248101829052604401610a78565b606060006133248361340d565b600101905060008167ffffffffffffffff811115613344576133446135da565b6040519080825280601f01601f19166020018201604052801561336e576020820181803683370190505b5090508181016020015b600019016f181899199a1a9b1b9c1cb0b131b232b360811b600a86061a8153600a850494508461337857509392505050565b60006001600160a01b03831615801590612c6b5750826001600160a01b0316846001600160a01b031614806133e457506133e4848461274f565b80612c6b5750506000908152600460205260409020546001600160a01b03908116911614919050565b60008072184f03e93ff9f4daa797ed6e38ed64bf6a1f0160401b831061344c5772184f03e93ff9f4daa797ed6e38ed64bf6a1f0160401b830492506040015b6d04ee2d6d415b85acef81000000008310613478576d04ee2d6d415b85acef8100000000830492506020015b662386f26fc10000831061349657662386f26fc10000830492506010015b6305f5e10083106134ae576305f5e100830492506008015b61271083106134c257612710830492506004015b606483106134d4576064830492506002015b600a83106109925760010192915050565b604051806101000160405280600081526020016000815260200160006001600160a01b03168152602001606081526020016060815260200160008152602001600060048111156135375761353761390e565b8152600060209091015290565b6001600160e01b0319811681146118da57600080fd5b60006020828403121561356c57600080fd5b8135610c7c81613544565b60005b8381101561359257818101518382015260200161357a565b50506000910152565b600081518084526135b3816020860160208601613577565b601f01601f19169290920160200192915050565b602081526000610c7c602083018461359b565b634e487b7160e01b600052604160045260246000fd5b604051601f8201601f1916810167ffffffffffffffff81118282101715613619576136196135da565b604052919050565b600067ffffffffffffffff82111561363b5761363b6135da565b50601f01601f191660200190565b600061365c61365784613621565b6135f0565b905082815283838301111561367057600080fd5b828260208301376000602084830101529392505050565b600082601f83011261369857600080fd5b610c7c83833560208501613649565b6000806000606084860312156136bc57600080fd5b833567ffffffffffffffff808211156136d457600080fd5b6136e087838801613687565b945060208601359150808211156136f657600080fd5b61370287838801613687565b9350604086013591508082111561371857600080fd5b5061372586828701613687565b9150509250925092565b60006020828403121561374157600080fd5b5035919050565b6001600160a01b03811681146118da57600080fd5b6000806040838503121561377057600080fd5b823561377b81613748565b946020939093013593505050565b60008060006060848603121561379e57600080fd5b8335925060208401356137b081613748565b929592945050506040919091013590565b600080604083850312156137d457600080fd5b82359150602083013567ffffffffffffffff8111156137f257600080fd5b6137fe85828601613687565b9150509250929050565b60008060006060848603121561381d57600080fd5b833561382881613748565b925060208401356137b081613748565b60006020828403121561384a57600080fd5b8135610c7c81613748565b6020808252825182820181905260009190848201906040850190845b8181101561388d57835183529284019291840191600101613871565b50909695505050505050565b60006101608d83528c602084015260018060a01b038c1660408401528a15156060840152891515608084015288151560a08401528760c08401528660e084015285610100840152841515610120840152806101408401526138fc8184018561359b565b9e9d5050505050505050505050505050565b634e487b7160e01b600052602160045260246000fd5b6005811061394257634e487b7160e01b600052602160045260246000fd5b9052565b888152602081018890526001600160a01b038781166040830152610100606083018190526000916139798483018a61359b565b9150838203608085015261398d828961359b565b92508660a08501526139a260c0850187613924565b80851660e085015250509998505050505050505050565b6000806000606084860312156139ce57600080fd5b83359250602084013567ffffffffffffffff808211156136f657600080fd5b60008060408385031215613a0057600080fd5b823591506020830135613a1281613748565b809150509250929050565b60008060408385031215613a3057600080fd5b50508035926020909101359150565b80358015158114613a4f57600080fd5b919050565b60008060408385031215613a6757600080fd5b82359150613a7760208401613a3f565b90509250929050565b60008060408385031215613a9357600080fd5b8235613a9e81613748565b9150613a7760208401613a3f565b600080600060608486031215613ac157600080fd5b83359250602084013560058110613ad757600080fd5b91506040840135613ae781613748565b809150509250925092565b8a81526001600160a01b038a8116602083015261014060408301819052600091613b1e8483018d61359b565b91508382036060850152613b32828c61359b565b991515608085015297151560a0840152505060c081019490945260e084019290925261010083015290911661012090910152949350505050565b60208152815160208201526020820151604082015260006040830151613b9d60608401826001600160a01b03169052565b506060830151801515608084015250608083015180151560a08401525060a083015180151560c08401525060c083015160e0838101919091528301516101008084019190915283015161012080840191909152830151610140613c038185018315159052565b840151610160848101529050612c6b61018084018261359b565b60008060008060808587031215613c3357600080fd5b8435613c3e81613748565b93506020850135613c4e81613748565b925060408501359150606085013567ffffffffffffffff811115613c7157600080fd5b8501601f81018713613c8257600080fd5b613c9187823560208401613649565b91505092959194509250565b600080600080600080600060e0888a031215613cb857600080fd5b87359650613cc860208901613a3f565b9550613cd660408901613a3f565b9450613ce460608901613a3f565b93506080880135925060a0880135915060c088013567ffffffffffffffff811115613d0e57600080fd5b613d1a8a828b01613687565b91505092959891949750929550565b60208152815160208201526020820151604082015260018060a01b03604083015116606082015260006060830151610100806080850152613d6e61012085018361359b565b91506080850151601f198584030160a0860152613d8b838261359b565b92505060a085015160c085015260c0850151613daa60e0860182613924565b5060e08501516001600160a01b038116858301525b5090949350505050565b60008060408385031215613ddc57600080fd5b8235613de781613748565b91506020830135613a1281613748565b602081528151602082015260006020830151613e1e60408401826001600160a01b03169052565b506040830151610140806060850152613e3b61016085018361359b565b91506060850151601f19858403016080860152613e58838261359b565b9250506080850151613e6e60a086018215159052565b5060a085015180151560c08601525060c085015160e08581019190915285015161010080860191909152850151610120808601919091528501516001600160a01b03811682860152613dbf565b600181811c90821680613ecf57607f821691505b60208210810361200a57634e487b7160e01b600052602260045260246000fd5b634e487b7160e01b600052601160045260246000fd5b600060018201613f1757613f17613eef565b5060010190565b600060208284031215613f3057600080fd5b8151610c7c81613748565b601f821115611262576000816000526020600020601f850160051c81016020861015613f645750805b601f850160051c820191505b81811015612eb357828155600101613f70565b815167ffffffffffffffff811115613f9d57613f9d6135da565b613fb181613fab8454613ebb565b84613f3b565b602080601f831160018114613fe65760008415613fce5750858301515b600019600386901b1c1916600185901b178555612eb3565b600085815260208120601f198616915b8281101561401557888601518255948401946001909101908401613ff6565b50858210156140335787850151600019600388901b60f8161c191681555b5050505050600190811b01905550565b604081526000614056604083018561359b565b905060018060a01b03831660208301529392505050565b602080825260119082015270125408191bd95cc81b9bdd08195e1a5cdd607a1b604082015260600190565b8181038181111561099257610992613eef565b8082018082111561099257610992613eef565b828152604060208201526000612c6b604083018461359b565b6000602082840312156140e957600080fd5b815167ffffffffffffffff81111561410057600080fd5b8201601f8101841361411157600080fd5b805161411f61365782613621565b81815285602083850101111561413457600080fd5b614145826020830160208601613577565b95945050505050565b602081016109928284613924565b634e487b7160e01b600052601260045260246000fd5b6001600160a01b03858116825284166020820152604081018390526080606082018190526000906141a59083018461359b565b9695505050505050565b6000602082840312156141c157600080fd5b8151610c7c81613544565b600083516141de818460208801613577565b8351908301906141f2818360208801613577565b0194935050505056fee5fb23ca25b1926b1ca21dbdb4191e48e3309be57123e35256a77ecd04a1bd64a264697066735822122039cc75f99f9fc83a360985c91a888afc85391d5de547208615cba8edeb94927364736f6c63430008180033",
  "linkReferences": {},
  "deployedLinkReferences": {}
}